:100000000C94E9020C9408030C9408030C94080364
:100010000C9408030C9408030C9408030C94080334
:100020000C9408030C9408030C9408030C94080324
:100030000C9408030C9408030C9408030C94FB0B19
:100040000C9408030C9408030C9408030C94080304
:100050000C9408030C9408030C9408030C940803F4
:100060000C9408030C9408030C9408030C940803E4
:100070000C9408030C9408030C9408030C940803D4
:100080000C9408030C9408030C940803D60DE10D9E
:10009000E50DF20DF90D030E060E140E1F0E220EC5
:1000A0002F0E360E400E430E510E5C0E5F0E660E86
:1000B000720E7C0E7F0E8E0E990E9D0EA40EB00E4B
:1000C000BA0EBD0ECB0ED60ED90EE00EEC0EF60E0D
:1000D000F90E00000000003E5B4F5B3E3E6B4F6B35
:1000E0003E1C3E7C3E1C183C7E3C181C577D571C19
:1000F0001C5E7F5E1C00183C1800FFE7C3E7FF0092
:1001000018241800FFE7DBE7FF30483A060E2629DF
:10011000792926407F050507407F05253F5A3CE7A2
:100120003C5A7F3E1C1C08081C1C3E7F14227F2268
:10013000145F5F005F5F06097F017F006689956A33
:10014000606060606094A2FFA29408047E040810BE
:10015000207E201008082A1C08081C2A08081E10E7
:100160001010100C1E0C1E0C30383E3830060E3E9F
:100170000E06000000000000005F000000070007FE
:1001800000147F147F14242A7F2A12231308646228
:1001900036495620500008070300001C2241000089
:1001A00041221C002A1C7F1C2A08083E08080080E7
:1001B000703000080808080800006060002010087F
:1001C00004023E5149453E00427F40007249494980
:1001D000462141494D331814127F102745454539B2
:1001E0003C4A4949314121110907364949493646B6
:1001F0004949291E00001400000040340000000896
:100200001422411414141414004122140802015938
:1002100009063E415D594E7C1211127C7F494949C5
:10022000363E414141227F4141413E7F494949415A
:100230007F090909013E414151737F0808087F0089
:10024000417F41002040413F017F081422417F400F
:100250004040407F021C027F7F0408107F3E4141E6
:10026000413E7F090909063E4151215E7F09192956
:1002700046264949493203017F01033F4040403F40
:100280001F2040201F3F4038403F63140814630381
:10029000047804036159494D43007F414141020400
:1002A000081020004141417F040201020440404007
:1002B0004040000307080020545478407F284444FD
:1002C000383844444428384444287F385454541817
:1002D00000087E090218A4A49C787F080404780012
:1002E000447D40002040403D007F102844000041F4
:1002F0007F40007C047804787C0804047838444407
:100300004438FC1824241818242418FC7C080404FD
:1003100008485454542404043F44243C4040207C66
:100320001C2040201C3C4030403C44281028444CB9
:100330009090907C4464544C440008364100000086
:10034000770000004136080002010204023C262327
:10035000263C1EA1A161123A4040207A38545455DF
:1003600059215555794122545478422155547840A9
:1003700020545579400C1E52721239555555593931
:100380005454545939555454580000457C41000286
:10039000457D420001457C407D1211127DF02825EB
:1003A00028F07C545545002054547C547C0A097F25
:1003B0004932494949323A4444443A324A48483039
:1003C0003A4141217A3A42402078009DA0A07D3DEB
:1003D0004242423D3D4040403D3C24FF2424487E73
:1003E0004943662B2FFC2F2BFF0929F620C0887E5E
:1003F000090320545479410000447D413048484A63
:1004000032384040227A007A0A0A727D0D19317D15
:100410002629292F28262929292630484D402038E9
:100420000808080808080808382F10C8ACBA2F10A8
:100430002834FA00007B000008142A142222142A0F
:1004400014085500550055AA55AA55AAFF55FF5541
:10045000FF000000FF00101010FF00141414FF0034
:100460001010FF00FF1010F010F0141414FC001412
:1004700014F700FF0000FF00FF1414F404FC141430
:1004800017101F10101F101F1414141F001010102D
:10049000F0000000001F101010101F10101010F0BE
:1004A00010000000FF101010101010101010FF109E
:1004B000000000FF140000FF00FF00001F101700E5
:1004C00000FC04F414141710171414F404F40000BE
:1004D000FF00F714141414141414F700F714141470
:1004E000171410101F101F141414F4141010F0100F
:1004F000F000001F101F0000001F14000000FC147B
:100500000000F010F01010FF10FF141414FF14106E
:1005100010101F00000000F010FFFFFFFFFFF0F0C1
:10052000F0F0F0FFFFFF0000000000FFFF0F0F0FD3
:100530000F0F3844443844FC4A4A4A347E020206CB
:1005400006027E027E0263554941633844443C04FE
:10055000407E201E2006027E020299A5E7A5991C76
:100560002A492A1C4C7201724C304A4D4D30304899
:10057000784830BC625A463D3E494949007E0101F7
:10058000017E2A2A2A2A2A44445F444440514A448C
:100590004040444A51400000FF0103E080FF00005A
:1005A00008086B6B083612362436060F090F060052
:1005B0000018180000001010003040FF0101001F5B
:1005C00001011E00191D1712003C3C3C3C000000BC
:1005D000000011241FBECFEFD0E1DEBFCDBF14E07D
:1005E000A0E0B1E0E0EDFEE300E00BBF02C0079049
:1005F0000D92AA34B107D9F729E0AAE4B4E001C00A
:100600001D92A730B207E1F70E9496120C94661F64
:100610000C94000008953F924F925F926F927F92E8
:100620008F929F92AF92BF92CF92DF92EF92FF9202
:100630000F931F93CF93DF93EC017B016A01302E60
:10064000A901461B570B57FF03C05195419551090E
:10065000C6018C1B9D0B97FF03C091958195910955
:1006600066246394712C8417950714F0612C712C07
:100670006114710451F09C2D8D2D6901292F382FA3
:100680009C2F8D2FE701E92EF82ECC16DD0654F4B1
:100690009E2D8F2D7901292F382F9C2F8D2FE6012C
:1006A000C92ED82E5601AC1ABD0A49018E189F08D2
:1006B00097FE03C09194819491082501B7FE03C071
:1006C0008FEF481A580A55944794E216F3061CF423
:1006D00001E010E014C00FEF1FEF11C0432D6114B3
:1006E000710489F06C2F8E2D0E94A01948185908AA
:1006F00057FE04C0E00EF11E4A0C5B1C2196CC167E
:10070000DD0664F703C06E2D8C2FEECFDF91CF9105
:100710001F910F91FF90EF90DF90CF90BF90AF901F
:100720009F908F907F906F905F904F903F90089533
:100730000F931F93460F571F4150510989019A018A
:10074000AC010E940B031F910F9108950F931F930B
:10075000480F591F4150510989019B010E940B0309
:100760001F910F9108954F925F926F927F928F9297
:100770009F92AF92BF92CF92DF92EF92FF920F9330
:100780001F93CF93DF93882E762EEA01922EEE24CC
:10079000E394F12CE41AF50ACC24DD24C41AD50A1A
:1007A000CC0CDD1C642F670D422F0E94A019672D11
:1007B0006C1B492D882D0E94A019492D672D8C2F67
:1007C000880D0E94A019492D672D882D8C1B0E9431
:1007D000A01900E010E0AA24A394B12C0C171D0767
:1007E0000CF048C0F7FC06C0219782E0C80ED11C6F
:1007F000EC0CFD1C0F5F1F4F92E0A90EB11CEA0C20
:10080000FB1C482C400E492D5C2E570C652D842D69
:100810000E94A019682C601A492D652D862D0E9412
:10082000A019492D572C5C1A652D842D0E94A01902
:10083000492D652D862D0E94A019672C600E492D2B
:10084000662D4C2E480C842D0E94A019492D662D32
:10085000682C6C1A862D0E94A019572C501A492D0D
:10086000652D842D0E94A019492D652D862D0E948D
:10087000A019B4CFDF91CF911F910F91FF90EF900E
:10088000DF90CF90BF90AF909F908F907F906F90B0
:100890005F904F9008952F923F924F925F926F9288
:1008A0007F928F929F92AF92BF92CF92DF92EF9200
:1008B000FF920F931F93CF93DF9300D000D0CDB75B
:1008C000DEB75C014B015C834B832801CC24C394CD
:1008D000D12CC41AD50A3A01719461947108660C3E
:1008E000771C180101E010E0322F31703983F12CB0
:1008F00022702A83C80101972B813C8182179307BC
:100900000CF05FC0D7FC0AC08B819C8101979C834F
:100910008B8392E0690E711CC60CD71CC801880F2E
:10092000991F0196C80ED91EE981EE2301F14B8172
:100930005C81440F551F4F5F5F4F440D551D97015C
:10094000B4018B819C81681B790BC8018A0D9B1DAA
:100950000E9498039701A1014D5F5F4FB401601B96
:10096000710B8B819C818A0D9B1D0E9498039A813B
:10097000992309F14B815C81440F551F4F5F5F4FF5
:10098000440D551D9701B401EB81FC816E1B7F0B5B
:10099000C501801B910B0E9498039701A1014D5F37
:1009A0005F4FB401601B710BC501EB81FC818E1B95
:1009B0009F0B0E9498030F5F1F4FF2E02F0E311C18
:1009C00099CF0F900F900F900F90DF91CF911F91C3
:1009D0000F91FF90EF90DF90CF90BF90AF909F90DE
:1009E0008F907F906F905F904F903F902F900895E1
:1009F000AF92BF92CF92DF92EF920F931F93CF935C
:100A0000DF936C015B01E22EC42FD0E030E0AE0139
:100A1000440F551F4F5F5F4FB5016C1B7D0B0E944C
:100A2000980300E010E023E0AE01B501C6010E948A
:100A30004B04DF91CF911F910F91EF90DF90CF90FA
:100A4000BF90AF900895AF92BF92CF92DF92EF9296
:100A5000FF920F931F93CF93DF937C01EB015A0119
:100A6000690198010E94A603BE016C0D7D1D6150B5
:100A700071099801A501C7010E94A6039801A6016A
:100A8000BE01C7010E949803C7018A0D9B1D9801F2
:100A9000A601BE010197DF91CF911F910F91FF90A9
:100AA000EF90DF90CF90BF90AF900C9498039F92FF
:100AB000AF92BF92CF92DF92EF92FF920F931F936C
:100AC000CF93DF936B01EA015901982EE12CF12CB1
:100AD000C80FD91F10E0892D8E0D90E02FEFE21A7C
:100AE000F20A8C179D0734F49801A501B6010E9403
:100AF0009803F1CFDF91CF911F910F91FF90EF906D
:100B0000DF90CF90BF90AF909F9008952F923F922B
:100B10004F925F926F927F928F929F92AF92BF920D
:100B2000CF92DF92EF92FF920F931F93CF93DF93B9
:100B30004C013B011A016901C02FD0E04424552427
:100B40004C1A5D0A440C551C5C01AC0EBD1E440DD4
:100B5000551D0E2DB301C5010E945705C40CD51CAF
:100B600081E0C81AD1086C0E7D1EC401820D931D50
:100B70008C1B9D0B860121E0AE01B30101970E9401
:100B80004B0422E0AE01B301C5010E944B04DF918A
:100B9000CF911F910F91FF90EF90DF90CF90BF907A
:100BA000AF909F908F907F906F905F904F903F900D
:100BB0002F9008953F924F925F926F927F928F9203
:100BC0009F92AF92BF92CF92DF92EF92FF920F93DC
:100BD0001F93CF93DF93182F762EC42FD0E0CC2411
:100BE000C394D12CCC1ADD0AAA24BB24AC1ABD0AAA
:100BF000AA0CBB1CE12CF12C88248394912C822F0D
:100C00008470682E922F9270592E822F8870482EF1
:100C10002170322EEC16FD060CF052C0D7FC06C037
:100C2000219792E0A90EB11CCA0CDB1C8FEFE81AC9
:100C3000F80A92E0890E911CC80CD91C662071F04C
:100C4000402F6C2F670D812F8E0D0E94A019402F11
:100C5000672D6E0D8C2F810F0E94A019552071F009
:100C6000402F672D6C1B812F8E0D0E94A019402FE5
:100C7000672D6E198C2F810F0E94A019442071F0EE
:100C8000402F672D6E0D812F8C1B0E94A019402FC5
:100C90006C2F670D812F8E190E94A019332009F443
:100CA000B9CF402F672D6E19812F8C1B0E94A01980
:100CB000402F672D6C1B812F8E190E94A019AACF7F
:100CC000DF91CF911F910F91FF90EF90DF90CF9028
:100CD000BF90AF909F908F907F906F905F904F905C
:100CE0003F9008952F923F924F925F926F927F9222
:100CF0008F929F92AF92BF92CF92DF92EF920F931B
:100D00001F93CF93DF93CDB7DEB728970FB6F89434
:100D1000DEBF0FBECDBF2C011B015E834D833901A9
:100D2000102FAE2CB12C802F90E098878F834C0130
:100D3000919481949108880C991CFA01E80DF91D91
:100D4000FA83E9836C01C40CD51C9501AF01C6017F
:100D50000E94A603C101860D971D9C838B83BC0155
:100D600061507109950149815A81C6010E94A6030B
:100D7000680C791CEF81F8852E0E3F1E9501A301AA
:100D8000B101C2010E9498038D809E80840C951C45
:100D90009501A301B101C40101970E9498030E2D92
:100DA00021E0412FB101C6010E94DA058F819885AB
:100DB000881A990A91E0891A910822E0412FB1011D
:100DC000C4010E94DA05AB80BC80EF81F885AE1AC1
:100DD000BF0AF1E0AF1AB10824E0412FB501C40108
:100DE0000E94DA0528E0412FB501C6010E94DA050C
:100DF00028960FB6F894DEBF0FBECDBFDF91CF911E
:100E00001F910F91EF90DF90CF90BF90AF909F9088
:100E10008F907F906F905F904F903F902F900895AC
:100E20002F923F924F925F926F927F928F929F92FA
:100E3000AF92BF92CF92DF92EF92FF920F931F93E8
:100E4000CF93DF9300D000D000D0CDB7DEB75C01E8
:100E50006B012A830B831E2D803F91050CF071C01E
:100E6000603471050CF06DC0AE2DB0E0BE83AD8373
:100E7000C501B6E0EB9E800D911D112418161906D0
:100E80000CF05FC08D819E8103E0880F991F0A9549
:100E9000E1F7860F971F181619060CF052C0E5E00F
:100EA0004E9F100111242501612C712CC1018E521D
:100EB0009F4F1C01862D853031F0F101E60DF71DA5
:100EC0009491998301C019824601E12CF12C8A0D7D
:100ED0008C83A981A0FF06C0113011F44A8109C09A
:100EE0000A810EC0BB81EA81BE1789F0113039F446
:100EF0004B2F6E2D6C0D8C810E94A01908C00B81A8
:100F00002D813E81A901B401C2010E945705F981DA
:100F1000F695F9832FEFE21AF20A8D819E81880EF1
:100F2000991E98E0E916F104A1F6AFEF6A1A7A0A61
:100F3000ED81FE814E0E5F1EF6E06F16710409F022
:100F4000B9CF26960FB6F894DEBF0FBECDBFDF91A6
:100F5000CF911F910F91FF90EF90DF90CF90BF90B6
:100F6000AF909F908F907F906F905F904F903F9049
:100F70002F900895BF92CF92DF92EF92FF920F933E
:100F80001F93CF93DF93122FF02EBE2C9093630804
:100F900080936208709361086093600886E0289FE0
:100FA00060011124EA0149914423C1F06091600875
:100FB00070916108E12E0B2D2F2D80916208909188
:100FC00063080E94100780916208909163088C0D5D
:100FD0009D1D9093630880936208E5CFDF91CF91C8
:100FE0001F910F91FF90EF90DF90CF90BF900895E9
:100FF00091B321E030E001C0220F8A95EAF7822FF9
:101000008095892381BB90B3922381E009F480E02D
:10101000089592B321E030E001C0220F8A95EAF7EB
:10102000922B92BB81B32095282321BB089592B3C4
:1010300021E030E001C0220F8A95EAF7822F8095E7
:10104000892382BB81B3822B81BB0895CF93C82FA4
:101050000E9417088FEF98E00197F1F700C0000099
:101060008C2F0E940908E2E2F1E03197F1F70000CD
:101070008C2F0E94F807E5E7F8E03197F1F700C000
:101080000000811106C08C2F0E94F80791E08111A9
:1010900001C090E0892FCF9108951F93CF93DF93E4
:1010A0001F92CDB7DEB7182F69830E94170881E31E
:1010B0008A95F1F700006981613019F4812F0E944F
:1010C0000908E0E7F1E03197F1F700C0812F0F90B8
:1010D000DF91CF911F910C940908CF93C82F0E94E4
:1010E000170881E38A95F1F700008C2F0E94090808
:1010F0008CE58A95F1F700008C2F0E94F80791E0AB
:10110000811101C090E0892FCF910895FF920F9334
:101110001F93CF93DF93F82EC0E0D0E0062F10E0AE
:10112000B8010C2E02C0759567950A94E2F76170BC
:101130008F2D0E944D082196C830D10589F78CEC7F
:1011400091E00197F1F700C00000DF91CF911F916E
:101150000F91FF900895EF92FF920F931F93CF93FB
:10116000DF93E82EC0E0D0E0F12C01E010E08E2DFE
:101170000E946D08882339F098010C2E01C0220FBF
:101180000A94EAF7F22A8CE58A95F1F70000219695
:10119000C830D10561F78F2DDF91CF911F910F914D
:1011A000FF90EF90089550E040E0ECE8252F30E00C
:1011B000261737077CF4DC01A20FB31F3C9128E00F
:1011C000F42FF32746953695F0FD4E272150C1F7B1
:1011D0005F5FECCF842F0895FF920F931F93CF93FF
:1011E000DF93182FEB01F42E052F0E942608882389
:1011F00009F16CEC812F0E9486086FE0812F0E941C
:1012000086086881812F0E9486086981812F0E944B
:101210008608CF2DD02F08E06991812F0E94860883
:101220000150D1F7812F0E94AB08812F0E94AB089B
:1012300081E001C08AE0DF91CF911F910F91FF9073
:101240000895FF920F931F93CF93DF93182F062FCC
:10125000F72E0E942608882391F06CEC812F0E94C3
:1012600086086AEA812F0E948608C02FDF2D0DE0D4
:10127000812F0E94AB0889930150D1F702C08AE008
:1012800001C081E0DF91CF911F910F91FF900895F0
:10129000FF920F931F93CF93DF93182F062FF72EF4
:1012A0000E942608882301F16CEC812F0E94860899
:1012B00065E5812F0E948608C02FDF2D03E069912C
:1012C000812F0E9486080150D1F78FEF99EE019788
:1012D000F1F700C00000812F0E94AB088A3A11F498
:1012E00081E003C08CE001C08AE0DF91CF911F91C3
:1012F0000F91FF900895DF92EF92FF920F931F934B
:10130000CF93DF93182FEB01042FE52EF22E0E94CE
:1013100026088823F1F06CEC812F0E94860860EF8C
:10132000812F0E9486086881812F0E94860869812A
:10133000812F0E948608D02EC02FDE2D8C2F8D1974
:101340008F1528F4812F0E94AB088993F7CF81E095
:1013500001C08AE0DF91CF911F910F91FF90EF9034
:10136000DF900895CF92DF92EF92FF920F931F9339
:10137000CF93DF93CDB7DEB729970FB6F894DEBFD2
:101380000FBECDBFD82E0E942608882311F163E33B
:101390008D2D0E9486088E010F5F1F4F7E0189E010
:1013A000E80EF11CC02E912F8D2D99870E94AB085D
:1013B000F80181938F019985EE15FF05A9F767E084
:1013C00070E08C2D0E94D3089885981304C081E0AA
:1013D00003C08AE001C08BE029960FB6F894DEBF07
:1013E0000FBECDBFDF91CF911F910F91FF90EF9076
:1013F000DF90CF9008959F92AF92BF92CF92DF92ED
:10140000EF92FF920F931F93CF93DF93CDB7DEB789
:10141000A1970FB6F894DEBF0FBECDBF982E1E8EDB
:101420001F8E18A288E0EBE0F1E0DE0156960190F5
:101430000D928A95E1F75E0186E1A80EB11C6E015E
:10144000AEE1CA0ED11CA501B601892D0E94EC089F
:10145000813009F05EC08E010F5F1F4F8DE0F801F3
:1014600011928A95E9F7B801892D0E9421098130EE
:1014700009F04FC0DE011496F50121919D912913C9
:101480008DE0EC15FD05C9F7813009F042C087E019
:1014900088A3B601892D0E9448098130D1F528E042
:1014A000A801B601892D0E947B09813091F5F801D0
:1014B0007501D7012D917D01919129138EE0EC14D6
:1014C000FD04B9F7982F813021F56E01BEE0CB0EF7
:1014D000D11C88E0F60111928A95E9F7A601B701BF
:1014E000892D99A30E94EC08B701892D0E94480913
:1014F00028E0A801B701892D0E947B09F601D801D7
:1015000099A121918D9128139EE0EA15FB05C9F759
:10151000892FA1960FB6F894DEBF0FBECDBFDF9125
:10152000CF911F910F91FF90EF90DF90CF90BF90E0
:10153000AF909F900895379A86B1876086B93E9A9A
:10154000089597B1987F982B97B9369A349BFECF20
:1015500084B125B1349A90E0922B0895CF92DF9216
:10156000EF92FF92CF93DF93EC01862FCA80DB804E
:10157000EC80FD8093E0CC0CDD1CEE1CFF1C9A95EA
:10158000D1F7CA82DB82EC82FD820E94A10AA70108
:101590009601280F391F411D511DCA01B90129E0CB
:1015A00030E040E050E00E94D81C2A833B834C830B
:1015B0005D83C901DF91CF91FF90EF90DF90CF90D5
:1015C00008958091580860E081113EC089E798E055
:1015D0000E94AE0A885691409093AC088093AB0865
:1015E00061E087EB98E00E94AE0A885691409093A4
:1015F000AE088093AD0862E08EE898E00E94AE0AE3
:10160000885691409093B0088093AF0863E08FE6CE
:1016100098E00E94AE0A885691409093B208809359
:10162000B10864E085E698E00E94AE0A88569140D1
:101630009093B4088093B30865E088E898E00E942E
:10164000AE0A8856914031C089E798E00E94AE0A00
:101650009093AC088093AB0861E087EB98E00E9420
:10166000AE0A9093AE088093AD0862E08EE898E0F1
:101670000E94AE0A9093B0088093AF0863E08FE6B3
:1016800098E00E94AE0A9093B2088093B10864E09B
:1016900085E698E00E94AE0A9093B4088093B30860
:1016A00065E088E898E00E94AE0A9093B6088093BF
:1016B000B50808958F929F92AF92BF92CF92DF921A
:1016C000EF92FF926C0180915808EE24D7FCE094D1
:1016D000FE2C81111AC0C701B6010E941E1E2DECFE
:1016E0003CEC4CE45DE30E94CE1E2AE037ED43E281
:1016F0005DE30E941A1D20E030E040EA50E40E94C1
:10170000CE1E0E94EB1D9B016CC060910201709186
:101710000301882777FD8095982F0E941E1E20E0E8
:1017200030E048EC52E40E941B1D20E030E048EC21
:1017300052E40E94831D4B015C01C701B6010E9467
:101740001E1E9B01AC01C501B4010E94CE1E20E00B
:1017500030E040E85AE30E94CE1E60934E0870933A
:101760004F0880935008909351082DEC3CEC4CE4CA
:101770005EE30E941A1D25EC30E240E35DE30E9427
:10178000831D9B01AC010E941B1D6B017C0120E0AD
:1017900030E0A9010E947F1D87FD09C0C0924A0860
:1017A000D0924B08E0924C08F0924D0808C010927D
:1017B0004A0810924B0810924C0810924D08609104
:1017C0004A0870914B0880914C0890914D080E94F6
:1017D000EB1D209100013091010124563109260FA3
:1017E000371FC901FF90EF90DF90CF90BF90AF906F
:1017F0009F908F9008951F920F920FB60F92112411
:101800008F939F9380916B0890916C08009729F0BB
:10181000019790936C0880936B088091BD0890911C
:10182000BE08009729F001979093BE088093BD08E9
:101830008091A9089091AA08009729F001979093A8
:10184000AA088093A9089F918F910F900FBE0F90C7
:101850001F901895C79A2FEF8FE298E12150804092
:101860009040E1F700C00000C7982FEF8FE995E0A6
:10187000215080409040E1F700C00000C79A2FEF50
:101880008FE995E0215080409040E1F700C00000D2
:10189000C7982FEF8FE995E0215080409040E1F705
:1018A00000C00000C79A2FEF8FE995E021508040DB
:1018B0009040E1F700C00000C7982FEF8FE398E356
:1018C000215080409040E1F700C000000895C79A81
:1018D0002FEF8FE09EE0215080409040E1F700C064
:1018E0000000C7982FEF8FEE93E02150804090408A
:1018F000E1F700C00000C79A2FEF8FE09EE0215073
:1019000080409040E1F700C00000C7982FEF8FEEB5
:1019100093E0215080409040E1F700C00000C79A5A
:101920002FEF8FEE93E0215080409040E1F700C010
:101930000000C7980895813009F118F08230D9F17C
:1019400008952091550881E090E0062E01C0880F8F
:101950000A94EAF7442311F0822B02C08095822377
:1019600080935508809155088BBBC49A8FEF93EBF9
:101970000197F1F700C00000C49808952091540821
:1019800081E090E0062E01C0880F0A94EAF7442314
:1019900011F0822B02C0809582238093540880919D
:1019A00054088BBBC39A8FEF93EB0197F1F700C0FC
:1019B0000000C39808952091530881E090E0062E1E
:1019C00001C0880F0A94EAF7442311F0822B02C069
:1019D0008095822380935308809153088BBBC29AD1
:1019E0008FEF93EB0197F1F700C00000C2980895C4
:1019F0008230D1F028F4882341F0813071F00895CD
:101A00008330C9F08430F9F0089541E0613011F479
:101A100067E001C065E081E01DC041E0613011F484
:101A200065E00DC066E0F7CF41E0613011F466E09B
:101A300006C065E00EC041E0613019F467E082E065
:101A400009C066E006C0613011F4C69A089541E00D
:101A500067E080E00C949B0C8230E1F028F488234E
:101A600041F0813071F008958330E1F0843011F15C
:101A7000089540E067E081E00E949B0C40E065E053
:101A800007C040E065E082E00E949B0C40E066E019
:101A900081E014C040E066E082E00E949B0C40E0E0
:101AA00065E00BC040E067E082E00E949B0C40E0F4
:101AB00066E003C0C69840E067E080E00C949B0CB1
:101AC000E199FECF9FBB8EBB6DBBE29AE19A089570
:101AD000E199FECF9FBB8EBBE09A8DB30895CF9264
:101AE000DF92EF92FF920F931F93CF93DF938B01BF
:101AF0007A01EB016C01C61AD70AC6018C0F9D1F33
:101B00009E01201B310B2E153F0524F469910E9484
:101B1000600DF3CFDF91CF911F910F91FF90EF9068
:101B2000DF90CF900895CF92DF92EF92FF920F93C4
:101B30001F93CF93DF938B017A01EB016C01C61ADF
:101B4000D70AC6018C0F9D1F9E01201B310B2E153D
:101B50003F0524F40E94680D8993F3CFDF91CF9164
:101B60001F910F91FF90EF90DF90CF9008950F930A
:101B70001F93823009F489C030F4882359F08130F2
:101B800009F446C03DC1833009F4BCC0843009F477
:101B9000F7C036C1062F10E0F8013197E730F105A4
:101BA00008F02EC1EA5BFF4F0C94FA1C41E060E0A4
:101BB00082E00E949B0C40E061E082E00E949B0C6E
:101BC00025C040E060E082E017C141E060E082E0D3
:101BD0000E949B0C41E061E082E00E949B0C40E08F
:101BE00062E0F1CF40E060E082E00E949B0C40E0C8
:101BF000F2CF41E062E082E00E949B0C40E060E0B6
:101C000082E00E949B0C40E061E0DDCF41E0E8CF44
:101C1000462F50E0FA013197E730F10508F0F0C0A7
:101C2000E35BFF4F0C94FA1C41E063E082E00E940A
:101C30009B0C40E064E082E00E949B0C24C040E0EA
:101C400063E0C1CF41E063E082E00E949B0C41E091
:101C500064E082E00E949B0C40E060E06CC040E0E9
:101C600063E082E00E949B0C40E0F2CF41E060E044
:101C700081E00E949B0C40E063E082E00E949B0CAC
:101C800040E064E0A0CF41E0E8CF462F50E0FA0109
:101C90003197E730F10508F0B3C0EC5AFF4F0C94D0
:101CA000FA1C41E061E081E00E949B0C40E062E0B0
:101CB00081E00E949B0C23C040E061E03CC041E019
:101CC00061E081E00E949B0C41E006C040E061E0E1
:101CD00081E00E949B0C40E062E081E00E949B0C4E
:101CE00040E00EC041E063E081E00E949B0C40E0D8
:101CF00061E081E00E949B0C40E062E01CC041E09A
:101D000063E019C0862F90E0FC013197E730F105C0
:101D100008F076C0E55AFF4F0C94FA1C41E064E0ED
:101D200081E00E949B0C40E060E080E00E949B0C00
:101D300024C040E064E081E05FC041E064E081E015
:101D40000E949B0C41E006C040E064E081E00E94FC
:101D50009B0C40E060E080E00E949B0C40E00EC0E5
:101D600041E061E080E00E949B0C40E064E081E0A3
:101D70000E949B0C40E060E03EC041E061E03BC05F
:101D8000862F90E0FC013197E730F105C8F5EE5958
:101D9000FF4F0C94FA1C41E062E080E00E949B0C33
:101DA00040E063E080E00E949B0C23C040E062E0E2
:101DB00022C041E062E080E00E949B0C41E006C04E
:101DC00040E062E080E00E949B0C40E063E080E045
:101DD0000E949B0C40E00EC041E064E080E00E9465
:101DE0009B0C40E062E080E00E949B0C40E063E0DE
:101DF00002C041E064E080E01F910F910C949B0CC5
:101E00001F910F910895CF93DF9385E00E94A10A5F
:101E10000E945A0BEC01809152088130A1F0209170
:101E20000601309107018091040190910501A901FB
:101E3000481B590BC417D50734F0820F931F8C171A
:101E40009D070CF075C081E0809352080E94D9185C
:101E500020910601309107018091040190910501C4
:101E6000A901481B590BC417D50764F561E080E050
:101E70000E94CA1883E191E00E94431963E080E068
:101E80000E94CA188FE291E00E9443198FE492E009
:101E90000E944319CE010E944F1965E080E00E9424
:101EA000CA188EE491E00E94431980910601909136
:101EB00007010E944F1965E08AE10E94CA1886E670
:101EC00091E030C0820F931F8C179D077CF561E075
:101ED00080E00E94CA1883E191E00E94431963E008
:101EE00080E00E94CA188DE691E00E9443198FE4B9
:101EF00092E00E944319CE010E944F1965E080E0F4
:101F00000E94CA188DE891E00E9443198091060151
:101F1000909107010E944F1965E08CE10E94CA1858
:101F200087E691E0DF91CF910C944319109252080B
:101F3000DF91CF910895EF920F9380915E088130E9
:101F400009F457C0E12C01E027E046EA51E067E0E0
:101F500070E082E390E00E94BA0721E04AEA51E093
:101F600067E070E080EB90E00E94BA0721E030E08B
:101F700045E050E06BE070E082EB90E00E94B3033C
:101F80002FEF8FE594E5215080409040E1F700C0AD
:101F900000000E94D9180E942F1960E080E00E9482
:101FA000CA188CEA91E00E94431962E080E00E9426
:101FB000CA1888EC91E00E94431964E080E00E9416
:101FC000CA1888EE91E00E94431966E080E00E9402
:101FD000CA1888E092E00E9443192FEF8FEB98EA2D
:101FE000215080409040E1F700C0000081E08093E4
:101FF0005E080F91EF900895CF93DF938091B5081D
:102000009091B6080E945A0BEC0180915B0891E018
:10201000980F90935B08823148F40E94D91862E0CF
:102020008DE00E94CA1888E292E0B3C06FEF60931F
:102030005B0870915A087130A1F02091060130912F
:1020400007018091040190910501A901481B590BDA
:10205000C417D50734F0820F931F8C179D070CF01F
:1020600073C081E080935A080E94D918209106011C
:10207000309107018091040190910501A901481B4D
:10208000590BC417D50764F561E080E00E94CA18B7
:1020900083E191E00E94431963E080E00E94CA1846
:1020A0008FE291E00E9443198FE492E00E9443196D
:1020B000CE010E944F1965E080E00E94CA188EE4AC
:1020C00091E00E94431980910601909107010E94BE
:1020D0004F1965E08AE10E94CA1886E691E059C06E
:1020E000820F931F8C179D0764F561E080E00E94CA
:1020F000CA1883E191E00E94431963E080E00E94E6
:10210000CA188DE691E00E9443198FE492E00E9484
:102110004319CE010E944F1965E080E00E94CA1861
:102120008DE891E00E94431980910601909107018A
:102130000E944F1965E08CE10E94CA1887E691E081
:1021400028C010925A0830C071112EC080915908D1
:1021500091E0980F909359088830F0F40E94D918B4
:1021600062E080E00E94CA1885E392E00E94431971
:10217000CE010E944F1962E081E20E94CA1887E6F0
:1021800091E00E94431964E080E00E94CA1883E550
:1021900092E00E94431908C06093590810925A08AF
:1021A0000E94D91881E001C080E0DF91CF910895AD
:1021B00080915F08813009F4B7C180915D08811179
:1021C00016C080915C0891E0980F90935C08853070
:1021D00048F40E94D91863E080E00E94CA1884E79E
:1021E00092E097C110925C0881E080935D080C99A1
:1021F00030C062E080E00E94CA188FE892E00E943E
:10220000431964E080E00E94CA188BEA92E00E94C1
:1022100043190C9903C00E942A0CFBCF0E94D918C5
:1022200062E080E00E94CA188BEC92E00E944319A1
:1022300064E080E00E94CA188EEE92E00E9443198A
:102240002FEF8FE594E5215080409040E1F700C0EA
:10225000000080915D08813009F097C080915C0892
:1022600091E0980F90935C088C3008F06EC00E944B
:10227000D91863E080E00E94CA188EE093E00E94C3
:10228000431980915C08833028F441E065E081E0E7
:102290000E949B0C80915C088350823050F440E097
:1022A00065E081E00E949B0C41E066E081E00E94D5
:1022B0009B0C80915C088550823050F440E066E0D1
:1022C00081E00E949B0C41E065E080E00E949B0C55
:1022D00080915C088750823050F440E065E080E0F7
:1022E0000E949B0C41E066E080E00E949B0C809184
:1022F0005C088950823050F440E066E080E00E9443
:102300009B0C41E067E080E00E949B0C80915C08A0
:102310008B3008F400C141E065E081E00E949B0C35
:1023200041E066E081E00E949B0C41E065E080E0D6
:102330000E949B0C41E066E080E00E949B0C41E023
:1023400067E080E00E949B0CE6C040E065E081E031
:102350000E949B0C40E066E081E00E949B0C40E004
:1023600065E080E00E949B0C40E066E080E00E9417
:102370009B0C40E067E080E00E949B0C10925C08A0
:1023800080915D088F5F80935D0880915D08823049
:1023900009F08BC080915C0891E0980F90935C08E5
:1023A0008C3008F066C00E94D91863E080E00E947B
:1023B000CA188CE293E00E94431980915C08833034
:1023C00028F441E067E081E00E949B0C80915C086A
:1023D0008350823050F440E067E081E00E949B0C23
:1023E00041E065E082E00E949B0C80915C08855092
:1023F000823050F440E065E082E00E949B0C41E0B6
:1024000066E082E00E949B0C80915C0887508230DD
:1024100050F440E066E082E00E949B0C41E067E0FF
:1024200082E00E949B0C80915C088950823030F4DD
:1024300040E067E082E00E949B0CC69A80915C08B5
:102440008B3008F468C041E067E081E00E949B0C9B
:1024500041E065E082E00E949B0C41E066E082E0A2
:102460000E949B0C41E067E082E00E949B0CC69AB0
:1024700052C040E067E081E00E949B0C40E065E0D4
:1024800082E00E949B0C40E066E082E00E949B0C90
:1024900040E067E082E00E949B0CC69810925C08C6
:1024A00080915D088F5F80935D0880915D08833027
:1024B000E1F480915C0891E0980F90935C0885307E
:1024C00060F40E94D91863E080E00E94CA1889E491
:1024D00093E00E944319C79A1EC0C79810925C08E7
:1024E00080915D088F5F80935D0880915D088430E6
:1024F000C9F480915C0891E0980F90935C08853056
:1025000060F40E94D91863E080E00E94CA1884E653
:1025100093E00E94431980E0089510925C0885E0E2
:1025200080935D080C94FC0F81E0089583B7886068
:1025300083BF83B7876083BF84EB81BF87B7826027
:1025400087BF0E9447150E949B0A0E94221A0E9480
:10255000D9180E941E190E942F19C59A1BBAC49A35
:10256000C39AC29A2FEF8FEC92E0215080409040A6
:10257000E1F700C00000C498C398C2987894F12C89
:10258000CFE0D0E001E210E080916B0890916C0800
:10259000892B31F4D0936C08C0936B080E94E10A38
:1025A0008091BD089091BE08892B71F71093BE08E9
:1025B0000093BD0880915F08811110C00E949B0F9D
:1025C0000E94D81080935F08882309F458C20E94A3
:1025D000D9180E941E190E942F1951C28091980883
:1025E0008130B1F41092980840E067E00E949B0CA3
:1025F00040E065E082E00E949B0C40E066E082E003
:102600000E949B0C40E067E082E00E949B0CC69811
:10261000809199088130D1F41092990840E065E0EA
:102620000E949B0C40E066E081E00E949B0C40E031
:1026300065E080E00E949B0C40E066E080E00E9444
:102640009B0C40E067E080E00E949B0C80910801B9
:10265000813011F5E4EAF8E0A0EDB8E08191813035
:1026600019F01092560809C09D919111FACF28E0F7
:10267000E93AF20799F7809356088091560881301D
:1026800069F480937F088093800880938108809309
:1026900082088093830802C0109256088091A40893
:1026A000813041F40B9B06C040E067E00E949B0C28
:1026B0001092A4088091A508813049F40D9B07C0B1
:1026C00040E065E082E00E949B0C1092A50880919A
:1026D000A608813049F40E9B07C040E066E082E026
:1026E0000E949B0C1092A6088091A708813049F4A3
:1026F0000F9B07C040E067E082E00E949B0C1092B5
:10270000A7088091A808813029F4B09B03C0C6981F
:102710001092A80880915708813039F48091A4085C
:1027200081111EC00B9B09C03EC081113CC080912D
:102730007F0881111AC00B9936C041E067E081E043
:102740000E949B0C80910801811106C081E080935A
:10275000980880937F0830C081E08093A4082CC043
:10276000813009F50B9B05C01EC08130E1F40B9B45
:102770001AC041E065E081E00E949B0C40E067E008
:1027800081E00E949B0C81E0809399081092A4083C
:1027900010927F0864E080E00E94B70D1092D0088C
:1027A0001092EE0809C080917F08813029F480E002
:1027B0000E94411C8093EE0880915708813039F4C3
:1027C0008091A50881111EC00D9B09C03DC08111DB
:1027D0003BC08091800881111AC00D9935C041E03D
:1027E00065E082E00E949B0C80910801811106C087
:1027F00081E080939808809380082EC081E08093C8
:10280000A5082AC0813001F50D9B05C01DC081308F
:10281000D9F40D9B19C041E066E081E00E949B0C59
:1028200040E065E082E00E949B0C81E08093990883
:102830001092A5081092800864E00E94B70D1092D3
:10284000D1081092EF0808C080918008813021F4EF
:102850000E94411C8093EF0880915708813039F421
:102860008091A60881111EC00E9B09C03EC0811137
:102870003CC08091810881111AC00E9936C041E098
:1028800066E082E00E949B0C80910801811106C0E5
:1028900081E0809398088093810830C081E0809324
:1028A000A6082CC0813009F50E9B05C01EC08130E2
:1028B000E1F40E9B1AC041E065E080E00E949B0CB1
:1028C00040E066E082E00E949B0C81E080939908E2
:1028D0001092A6081092810864E082E00E94B70D71
:1028E0001092D2081092F00809C0809181088130BE
:1028F00029F482E00E94411C8093F00880915708DF
:10290000813039F48091A70881111EC00F9B09C046
:102910003EC081113CC08091820881111AC00F997C
:1029200036C041E067E082E00E949B0C8091080184
:10293000811106C081E0809398088093820830C09E
:1029400081E08093A7082CC0813009F50F9B05C05A
:102950001EC08130E1F40F9B1AC041E066E080E0C8
:102960000E949B0C40E067E082E00E949B0C81E0AB
:10297000809399081092A7081092820864E083E07F
:102980000E94B70D1092D3081092F10809C08091EF
:102990008208813029F483E00E94411C8093F10871
:1029A00080915708813039F48091A80881111CC0AA
:1029B000B09B09C038C0811136C080918308811155
:1029C00018C0B09930C0C69A80910801811106C024
:1029D00081E0809398088093830803C081E080930E
:1029E000A808EEEEF8E02EC08130E9F4B09B05C0F7
:1029F0001AC08130C1F4B09B16C041E067E080E0AE
:102A00000E949B0CC69881E0809399081092A808B8
:102A10001092830864E084E00E94B70D1092D408FD
:102A20001092F208DECF809183088130D1F684E0E5
:102A30000E94411C8093F208D4CFC79888E0E33FFE
:102A4000F80721F081918230C1F7C79A6091D008D0
:102A500080E00E942A186091D10881E00E942A1823
:102A60006091D20882E00E942A186091D30883E026
:102A70000E942A186091D40884E00E942A1881E0FC
:102A8000F8264F2D60E08FEE0E94A0197DCD13989F
:102A9000159816981798B8981B9A1D9A1E9A1F9AFF
:102AA000C09AE1E6F0E080818E7F808380818D7F17
:102AB000808380818B7F80838081877F80838081FA
:102AC0008F7E808380818F7D80838FEF8ABBBC9ACD
:102AD000BB9ABA9ABD9ABF9ABE9A08958F929F9256
:102AE000BF92DF92EF92FF921F93CF93DF93E82E76
:102AF000162FD82EDD0CDD0CDD0C60E08D2D0E9434
:102B0000CA1880E893E00E94431960E08D2D0E946E
:102B1000CA1889E893E00E944319F12CC701019675
:102B20000E944F1961E08D2D0E94CA1880E893E041
:102B30000E94431961E08D2D0E94CA18E701CC0F55
:102B4000DD1FFE01E555F74F808191810E944F19ED
:102B500080E993E00E944319FE01EC51F74F808118
:102B600091810E944F1962E08D2D0E94CA1883E85E
:102B700093E00E94431962E08D2D0E94CA18FE0165
:102B8000ED50F74F808191810E944F19C70182510A
:102B9000974F4C01FC018081815063E0823008F046
:102BA00045C08D2D0E94CA1882E993E00E94431906
:102BB00063E084E0B82EBD0C8B2D0E94CA1884E817
:102BC00093E00E94431963E08B2D0E94CA18FE0116
:102BD000EA53F74F808191810E944F1965E08D2D56
:102BE0000E94CA1880E893E00E94431965E08D2D89
:102BF0000E94CA18F701E152F74F8081813019F421
:102C000087E993E020C0823019F480EA93E01BC08A
:102C10008A3019F489EA93E016C08D3019F482EBFA
:102C200093E011C090E00E944F190FC08D2D0E94BB
:102C3000CA1880E893E00E94431965E08D2D0E9438
:102C4000CA1880E893E00E94431964E08D2D0E9429
:102C5000CA18112339F0F4018081811106C08BEB71
:102C600093E016C080E893E013C0143019F484ECAC
:102C700093E00EC0113019F48DEC93E009C01230CE
:102C800019F486ED93E004C0133021F48FED93E046
:102C90000E94431967E08D2D0E94CA18F4018081BB
:102CA000811103C088EE93E00FC0813019F481EFE9
:102CB00093E00AC0823019F48AEF93E005C0835094
:102CC000823020F483E094E00E944319F401808173
:102CD000813009F047C0113031F4CD50D74F099001
:102CE000D881C02D16C0123041F4CD50D74F099075
:102CF000D881C02DCB56DF4F0CC0133041F4CD50DE
:102D0000D74F0990D881C02DC351DE4F02C0C0E01B
:102D1000D0E066E08D2D0E94CA1880E893E00E9402
:102D2000431966E08D2D0E94CA189E012F5F3F4F08
:102D3000A4E6B0E00E94001D28E732E040E050E049
:102D40000E94D81CC9010E944F198CE094E0DF91C9
:102D5000CF911F91FF90EF90DF90BF909F908F9049
:102D60000C944319DF91CF911F91FF90EF90DF906A
:102D7000BF909F908F900895AF92BF92CF92DF92B5
:102D8000EF92FF920F931F93CF93DF9300D000D069
:102D9000CDB7DEB7D82EE62EF82EFF0CFF0CFF0CB9
:102DA00060E08F2D0E94CA1880E893E00E944319CA
:102DB00060E08F2D0E94CA188EE094E00E944319B3
:102DC0000D2D10E0C80101960E944F19C8018251D3
:102DD000974F5C01FC018081815061E08230C8F531
:102DE0008F2D0E94CA1882E993E00E94431961E086
:102DF00054E0C52ECF0C8C2D0E94CA1884E893E0B5
:102E00000E94431961E08C2D0E94CA18F801EE0F50
:102E1000FF1FEA53F74F808191810E944F1963E0B1
:102E20008F2D0E94CA1880E893E00E94431963E046
:102E30008F2D0E94CA18F801E152F74F808181302E
:102E400019F487E993E012C0823091F480EA93E0AC
:102E50000DC08F2D0E94CA1880E893E00E9443198C
:102E600063E08F2D0E94CA1880E893E00E94431906
:102E700062E08F2D0E94CA18EE2039F0F5018081A2
:102E8000811106C084E194E01AC080E893E017C085
:102E9000F4E0EF1203C084EC93E011C081E0E8128B
:102EA00003C08DEC93E00BC092E0E91203C08DE10A
:102EB00094E005C0E3E0EE1204C08FED93E00E94C1
:102EC000431967E08F2D0E94CA18F5019081911176
:102ED00003C086E294E00FC0913019F48FE294E0D1
:102EE0000AC0923019F488E394E005C09350923000
:102EF00020F481E494E00E944319F5018081F0E31D
:102F0000DF9E60011124813009F072C0E81208C010
:102F1000F801EE0FFF1FED50F74F008111811CC02B
:102F200092E0E9120AC0F801EE0FFF1FED50F74FD3
:102F3000008111810B561F4F0FC0E3E0EE120AC053
:102F4000F801EE0FFF1FED50F74F00811181035183
:102F50001E4F02C000E010E065E08F2D0E94CA18ED
:102F600080E893E00E94431965E082E08F0D0E94A3
:102F7000CA1898012F5F3F4FA4E6B0E00E94001DE1
:102F800028E732E040E050E00E94D81CC9012983C4
:102F90003A834B835C830E944F198CE094E00E943B
:102FA0004319AAE2B0E029813A814B815C810E94F9
:102FB0000F1D24E630E040E050E00E94D81CA9013B
:102FC0002115310511F441E050E021E030E062E3E9
:102FD00070E0C6010E94A60321E030E045E050E029
:102FE00060E370E0C6010E94980321E030E01CC05D
:102FF00065E08F2D0E94CA1880E893E00E94431973
:1030000020E030E04AE250E062E370E0C6010E9456
:10301000A60320E030E045E050E060E370E0C60148
:103020000E94980320E030E045E050E060E370E06B
:10303000C6018A960F900F900F900F90DF91CF915D
:103040001F910F91FF90EF90DF90CF90BF90AF90C6
:103050000C94980390910A01911102C00C946E1582
:10306000913011F40C94BC160895CF93DF931F9206
:10307000CDB7DEB719828981833028F400008981B9
:103080008F5F8983F8CF0F90DF91CF9108958FEFF5
:1030900084BB90EE91BB83E08093640092BB8093ED
:1030A0006500089514BA9598E5E6F0E080818E7F7A
:1030B000808382E18A95F1F700C083B39FEF94BBD0
:1030C000959A9081916090830895CF93C82F0E9424
:1030D00052188370E1F3C5BB9698809165008E7F8E
:1030E0008093650082E18A95F1F700C0969A8091FD
:1030F0006500816080936500CF910895CF93C82FBC
:103100000E9452188370E1F3C5BB82B38F7382BBF8
:10311000809165008E7F8093650082E18A95F1F74A
:1031200000C082B3806C82BB809165008160809317
:103130006500CF9108950E9452188370E1F314BA8C
:1031400082B38F7582BB809165008E7F809365000E
:1031500082E18A95F1F700C083B392B3906A92BB83
:10316000909165009160909365009FEF94BB0895E6
:10317000CF93DF931F92CDB7DEB799830E947E185D
:103180009981892F0E947E1884E20F90DF91CF9160
:103190000C94651828E2629FB00111249B01280F4E
:1031A000311DC9010C94B8180E947E1880EC0C9453
:1031B0006518CF93DF9380E090E00E94B818C0E4D8
:1031C000D1E080E00E94D41821972097D1F7DF91B9
:1031D000CF910895EF92FF920F931F93CF93DF93B8
:1031E000C82F80E090E00E94B8182C2F30E02150CA
:1031F000310983E0220F331F8A95E1F7E901C05BB3
:10320000DF4F790180ECE81A8EEFF80ACE010E94B8
:10321000B81808E010E080E00E94D41801501109AD
:1032200001151105C1F7A896CE15DF0579F7DF91D5
:10323000CF911F910F91FF90EF900895CF93DF935F
:1032400080E090E10E94B818C0E0D8E080E00E94E1
:10325000D41821972097D1F7DF91CF910895CF937C
:10326000DF9380E491E00E94B818C0E0DAE080E0EB
:103270000E94D41821972097D1F7DF91CF9108951C
:1032800080520C94D418CF93DF93EC01899188235A
:1032900019F00E944019FACFDF91CF910895CF9392
:1032A000DF93CDB7DEB760970FB6F894DEBF0FBEE1
:1032B000CDBF4AE0BE016F5F7F4F0E94311F0E9469
:1032C000431960960FB6F894DEBF0FBECDBFDF91F5
:1032D000CF910895CF93DF93FC018491EF01219664
:1032E000882321F00E944019FE01F7CFDF91CF9192
:1032F0000895EF92FF921F93CF93DF9300D0CDB745
:10330000DEB790E09E5F23E0880F991F2A95E1F7D2
:1033100069837A830E94B8186981E62E7A81F72E34
:1033200018E0F70181917F010E94D4181150C9F76C
:103330000F900F90DF91CF911F91FF90EF90089524
:103340001F93CF93DF931F92CDB7DEB7262F66E092
:103350000E94CC1C192F90E0805C9E4F38E2239F86
:10336000800D911D112449830E94B81885EC0E949C
:1033700065180E949B18212F30E04981442369F091
:1033800045E050E0421B530B21E030E0042E01C029
:10339000220F0A94EAF7282B0CC045E050E0421BAC
:1033A000530B21E030E001C0220F4A95EAF7209547
:1033B0002823822F0F90DF91CF911F910C94D41866
:1033C000262F66E00E94CC1C90E0805C9E4F38E285
:1033D000239F800D911D11240C94B818CF92DF9279
:1033E000EF92FF920F931F93CF93DF93582F392FB4
:1033F000D62E822F66E00E94CC1CC82EC52FD32F5C
:10340000040F142F1017A9F0612F8D2D0E94E019C1
:10341000E12CF12CEC1450F4F701EC0FFD1F84911A
:103420000E94D4188FEFE81AF80AF4CF1F5FA8960D
:10343000E9CFDF91CF911F910F91FF90EF90DF9037
:10344000CF9008950E944718E5E6F0E080818D7FD7
:1034500080838FEF91E10197F1F700C00000808138
:103460008260808380E40E947E1881E00E947E1842
:1034700082E40E94651888E20E947E1880E00E9423
:103480007E1883E40E94651880E00E947E1880E028
:103490000E947E1880E40E94651888E20E947E18CF
:1034A00080E00E947E1881E40E94651882E00E94FC
:1034B0007E1880E00E947E1882E20E9465188CE9E6
:1034C0000E94651881E80C9465180F931F93CF93A1
:1034D000DF93082F10E0E801CC0FDD1FFE01ED5057
:1034E000F74F208131812F5F3F4F318320832E3171
:1034F000310510F461E06AC02C333105F0F562E06B
:103500000E94B70DFE01E555F74F20813181FE0184
:10351000E350F74F808191818217930714F4318330
:103520002083FE01E350F74F80819181FE01EC5131
:10353000F74F91838083AC01421B530B9A01FE012C
:10354000EA53F74F51834083CD50D74F488159817B
:103550004932510550F18436910534F4F801E152B5
:10356000F74F81E080832CC025303105F4F0F8015D
:10357000E152F74F82E080832DC028373105B8F43F
:10358000FE01E555F74F20813181FE01EB52F74FE7
:1035900031832083FE01EA53F74FCC51D74F888106
:1035A0009981821B930B9183808381E013C0213822
:1035B000310540F4CA53D74F888199810397ACF302
:1035C00082E008C02539310520F464E00E94B70D7F
:1035D000ECCF83E0DF91CF911F910F9108950F936E
:1035E0001F93CF93DF93082F10E0E801CC0FDD1F6E
:1035F000FE01ED50F74F208131812F5F3F4F318326
:1036000020832832310510F463E066C0203531058F
:10361000C0F562E00E94B70DFE01E555F74F20812D
:103620003181FE01E350F74F80819181821793072A
:1036300014F431832083FE01E350F74F80819181A0
:10364000FE01EC51F74F91838083AC01421B530B79
:103650009A01FE01EA53F74F51834083CD50D74F73
:10366000488159814633510528F1843691051CF073
:1036700025303105FCF0F801E152F74F81E08083FD
:1036800025C0203451E03507B8F4FE01E555F74F69
:1036900020813181FE01EB52F74F31832083FE01FF
:1036A000EA53F74FCC51D74F88819981821B930BF6
:1036B0009183808381E014C0293491E0390740F47C
:1036C000CA53D74F888199810397A4F382E008C039
:1036D0002835314020F465E00E94B70DEBCF83E040
:1036E000DF91CF911F910F910895DF92EF92FF929A
:1036F0000F931F93CF93DF93D82EE82EF12CE70181
:10370000CC0FDD1F8E010D50174FF8012081318144
:103710002F5F3F4F318320832E31310510F463E05A
:1037200066C026343105F0F562E00E94B70D65E011
:103730008D2D0E94B70DF80140815181483251050D
:1037400008F443C0FE01E555F74F20813181FE01A9
:10375000E350F74F808191812817390714F43183A2
:103760002083FE01E350F74F80819181FE01EC51EF
:10377000F74F91838083BC01621B730B9B01CA537B
:10378000D74F798368834C325105F8F0823F9F4FC1
:103790001CF42C3F3F4FCCF4F701E152F74F81E08E
:1037A00080831FC02837310590F4FE01EA53F74F9C
:1037B000DE01AC51B74FC555D74F8D919C912881F3
:1037C0003981821B930B9183808381E015C021385E
:1037D000310548F4CA53D74F888199818E3F9F4F56
:1037E000A4F782E009C02B38310528F464E08D2D60
:1037F0000E94B70DEACF83E0DF91CF911F910F9127
:10380000FF90EF90DF900895CF93C82F0E94B209E8
:10381000813029F48C2F0E94FB09813039F0EC2F84
:10382000F0E0E152F74F808382E001C083E0CF9166
:103830000895CF93DF93C82FD0E09E01220F331F4E
:10384000F901ED50F74F11821082F901EA53F74F59
:1038500011821082F901E350F74F11821082F901B1
:10386000EC51F74F11821082F901EB52F74F1182A0
:1038700010820E942C0DC152D74F1882DF91CF9138
:103880000895CF92DF92EF92FF920F931F93CF9301
:10389000DF931F92CDB7DEB7E82E082F10E0C801E6
:1038A0008251974F6C01FC01F080F1100BC08E2DFE
:1038B0000E94191CF801E053F74F84E08083FF2435
:1038C000F3945CC0F1E0FF1246C00053174FF801BB
:1038D0008081843081F48E2D0E94041C833031F469
:1038E0008E2D0E94191CF801F08248C0823081F5AB
:1038F00072E0F72E43C0813061F48E2D0E94651A6C
:103900008330A1F78E2D0E94191C82E0F80180837C
:1039100035C0823089F48E2D0E94EF1A982F8330A3
:1039200041F48E2D99830E94191C9981F80190838E
:1039300025C0823069F4DCCF8330F1F48E2D0E94F3
:10394000751B833099F6F801108263E0F62E16C0DD
:10395000F601F08013C0F3E0FF1202C061E004C082
:1039600082E0F81209C060E08E2D0E94F80C64E03D
:103970008E2D0E94B70D02C054E0F52E8F2D0F90B2
:10398000DF91CF911F910F91FF90EF90DF90CF903B
:103990000895861B970B0895991B79E004C0991F21
:1039A000961708F0961B881F7A95C9F78095089599
:1039B000A1E21A2EAA1BBB1BFD010DC0AA1FBB1F33
:1039C000EE1FFF1FA217B307E407F50720F0A21BA5
:1039D000B30BE40BF50B661F771F881F991F1A9412
:1039E00069F760957095809590959B01AC01BD013C
:1039F000CF010895EE0FFF1F0590F491E02D09947B
:103A0000A29FB001B39FC001A39F700D811D11241F
:103A1000911DB29F700D811D1124911D08950E946A
:103A2000001DA59F900DB49F900DA49F800D911D2A
:103A3000112408955058BB27AA270ED075C166D10E
:103A400030F06BD120F031F49F3F11F41EF45BC1D4
:103A50000EF4E095E7FB51C1E92F77D180F3BA1757
:103A6000620773078407950718F071F49EF58FC1FC
:103A70000EF4E0950B2EBA2FA02D0B01B901900189
:103A80000C01CA01A0011124FF27591B99F0593FCD
:103A900050F4503E68F11A16F040A22F232F342F15
:103AA0004427585FF3CF469537952795A795F04063
:103AB0005395C9F77EF41F16BA0B620B730B840B78
:103AC000BAF09150A1F0FF0FBB1F661F771F881F30
:103AD000C2F70EC0BA0F621F731F841F48F4879588
:103AE00077956795B795F7959E3F08F0B3CF939577
:103AF000880F08F09927EE0F979587950895D9D0EC
:103B000008F481E008950CD00FC107D140F0FED039
:103B100030F021F45F3F19F0F0C0511139C1F3C00A
:103B200014D198F39923C9F35523B1F3951B550B81
:103B3000BB27AA2762177307840738F09F5F5F4F80
:103B4000220F331F441FAA1FA9F333D00E2E3AF0C1
:103B5000E0E830D091505040E695001CCAF729D0DB
:103B6000FE2F27D0660F771F881FBB1F261737072A
:103B70004807AB07B0E809F0BB0B802DBF01FF275A
:103B800093585F4F2AF09E3F510568F0B6C000C1C0
:103B90005F3FECF3983EDCF3869577956795B79594
:103BA000F7959F5FC9F7880F911D9695879597F9AF
:103BB0000895E1E0660F771F881FBB1F6217730728
:103BC0008407BA0720F0621B730B840BBA0BEE1F3D
:103BD00088F7E095089504D06894B111D9C008958C
:103BE000BCD088F09F5790F0B92F9927B751A0F01B
:103BF000D1F0660F771F881F991F1AF0BA95C9F781
:103C000012C0B13081F0C3D0B1E00895C0C0672FB9
:103C1000782F8827B85F39F0B93FCCF38695779530
:103C20006795B395D9F73EF4909580957095619519
:103C30007F4F8F4F9F4F0895E89409C097FB3EF444
:103C400090958095709561957F4F8F4F9F4F9923E9
:103C5000A9F0F92F96E9BB279395F6958795779567
:103C60006795B795F111F8CFFAF4BB0F11F460FF27
:103C70001BC06F5F7F4F8F4F9F4F16C0882311F07F
:103C800096E911C0772321F09EE8872F762F05C093
:103C9000662371F096E8862F70E060E02AF09A952E
:103CA000660F771F881FDAF7880F9695879597F923
:103CB0000895990F0008550FAA0BE0E8FEEF1616BD
:103CC0001706E807F907C0F012161306E407F50710
:103CD00098F0621B730B840B950B39F40A2661F084
:103CE000232B242B252B21F408950A2609F4A14027
:103CF000A6958FEF811D811D089597F99F6780E834
:103D000070E060E008959FEF80EC089500240A942D
:103D10001616170618060906089500240A941216A6
:103D20001306140605060895092E0394000C11F4D9
:103D3000882352F0BB0F40F4BF2B11F460FF04C086
:103D40006F5F7F4F8F4F9F4F089557FD9058440FDF
:103D5000551F59F05F3F71F04795880F97FB991FEA
:103D600061F09F3F79F087950895121613061406A7
:103D7000551FF2CF4695F1DF08C016161706180634
:103D8000991FF1CF86957105610508940895E8940F
:103D9000BB2766277727CB0197F908950BD0C4CFAF
:103DA000B5DF28F0BADF18F0952309F0A6CFABCF26
:103DB0001124EECFCADFA0F3959FD1F3950F50E009
:103DC000551F629FF001729FBB27F00DB11D639FCD
:103DD000AA27F00DB11DAA1F649F6627B00DA11D73
:103DE000661F829F2227B00DA11D621F739FB00D19
:103DF000A11D621F839FA00D611D221F749F332789
:103E0000A00D611D231F849F600D211D822F762F21
:103E10006A2F11249F5750408AF0E1F088234AF01E
:103E2000EE0FFF1FBB1F661F771F881F915050406A
:103E3000A9F79E3F510570F060CFAACF5F3FECF32A
:103E4000983EDCF3869577956795B795F795E79556
:103E50009F5FC1F7FE2B880F911D9695879597F967
:103E60000895BB274A3031F4992322F4BDE290959E
:103E700081959F4F0C943D1FBB27FB015527AA2717
:103E8000880F991FAA1FA41710F0A41B83955051E7
:103E9000B9F7A05DAA3308F0A95DA193009779F75F
:103EA000B111B1931192CB010C94561FDC01FC01AE
:103EB000672F71917723E1F7329704C07C916D935E
:103EC00070836291AE17BF07C8F30895F894FFCFCF
:103ED0006400A300020046000101010A141E2832FA
:103EE0003C46502020202020202020202020202060
:103EF000424C4144204349534E49454E49410020DC
:103F0000202020204349534E49454E4945204A45EB
:103F10005354205A41204E49534B494520002020FC
:103F200020202020202020205A5749454B535A203A
:103F3000444F20503D00205B6B50615D00202020ED
:103F40002020204349534E49454E4945204A455378
:103F500054205A41205759534F4B494500202020A7
:103F6000202020202020205A4D4E49454A535A20D7
:103F7000444F20503D004542530072002020202035
:103F8000202020202020544553544552205A424995
:103F90004F524E494B4F570020202020204441547F
:103FA00041204B4F4D50494C41434A492030372E18
:103FB00031322E32303232002020202020202020AA
:103FC0002020202020202020202020472E5A6965F4
:103FD0006261203230313600202020202020202035
:103FE00020202020202020202020442E536F626B90
:103FF0006F7720323032310053544142494C495A94
:1040000041434A41002020204349534E49454E49EF
:1040100045204A45535420504F505241574E452059
:10402000503D0020202020202020202050525A45A2
:104030004A5343494520444F20544553544F574118
:104040004E49410020202020202020202020202018
:104050002054455354204E41504945434941002086
:10406000202020202020202020202020424C4144BD
:10407000205A4153494C41435A41002020202020DE
:1040800020202020205A4D49454E205A4153494C6A
:1040900041435A204E412032345600202020202017
:1040A00020205553544157494F4E4F20504F5052A6
:1040B00041574E45204E4150494543494500202037
:1040C00020202020202020524F5A504F435A454351
:1040D000494520544553544F57414E4941002020F3
:1040E00020202020202020544553542044494F4470
:1040F0002028437A6572776F6E6529002020202082
:104100002020202020544553542044494F44202847
:104110005A69656C6F6E65290020202020202020C0
:104120002020202020202054455354204245455033
:104130004552410020202020202020202020202027
:104140002054455354204349534E49454E4941005C
:1041500020202020202020200054455354205A00A5
:104160007C004449463A004D494E50524553200088
:104170004D415844524F50200050524553454E43F4
:104180004500434F4D50415245200053544F504538
:1041900044202000485452202020202000574F5215
:1041A000454B202020005A42494F524E494B005661
:1041B0004143554D2020200049444C4520202020DB
:1041C0000054455354494E4720004641494C45440C
:1041D000202000474F4F4420202020002500534C32
:1041E0004F54200053544F5020202020004F425560
:1041F000444F57412000435A454B414D2020005425
:10420000455354554A4520005A4C5920202020201F
:0A42100000444F42525920202000C4
:00000001FF
